{
  "contractName": "Color",
  "abi": [
    {
      "inputs": [],
      "stateMutability": "nonpayable",
      "type": "constructor"
    },
    {
      "anonymous": false,
      "inputs": [
        {
          "indexed": true,
          "internalType": "address",
          "name": "owner",
          "type": "address"
        },
        {
          "indexed": true,
          "internalType": "address",
          "name": "approved",
          "type": "address"
        },
        {
          "indexed": true,
          "internalType": "uint256",
          "name": "tokenId",
          "type": "uint256"
        }
      ],
      "name": "Approval",
      "type": "event"
    },
    {
      "anonymous": false,
      "inputs": [
        {
          "indexed": true,
          "internalType": "address",
          "name": "owner",
          "type": "address"
        },
        {
          "indexed": true,
          "internalType": "address",
          "name": "operator",
          "type": "address"
        },
        {
          "indexed": false,
          "internalType": "bool",
          "name": "approved",
          "type": "bool"
        }
      ],
      "name": "ApprovalForAll",
      "type": "event"
    },
    {
      "anonymous": false,
      "inputs": [
        {
          "indexed": true,
          "internalType": "address",
          "name": "from",
          "type": "address"
        },
        {
          "indexed": true,
          "internalType": "address",
          "name": "to",
          "type": "address"
        },
        {
          "indexed": true,
          "internalType": "uint256",
          "name": "tokenId",
          "type": "uint256"
        }
      ],
      "name": "Transfer",
      "type": "event"
    },
    {
      "inputs": [
        {
          "internalType": "address",
          "name": "to",
          "type": "address"
        },
        {
          "internalType": "uint256",
          "name": "tokenId",
          "type": "uint256"
        }
      ],
      "name": "approve",
      "outputs": [],
      "stateMutability": "nonpayable",
      "type": "function"
    },
    {
      "inputs": [
        {
          "internalType": "address",
          "name": "owner",
          "type": "address"
        }
      ],
      "name": "balanceOf",
      "outputs": [
        {
          "internalType": "uint256",
          "name": "",
          "type": "uint256"
        }
      ],
      "stateMutability": "view",
      "type": "function",
      "constant": true
    },
    {
      "inputs": [
        {
          "internalType": "uint256",
          "name": "",
          "type": "uint256"
        }
      ],
      "name": "colors",
      "outputs": [
        {
          "internalType": "string",
          "name": "",
          "type": "string"
        }
      ],
      "stateMutability": "view",
      "type": "function",
      "constant": true
    },
    {
      "inputs": [
        {
          "internalType": "uint256",
          "name": "tokenId",
          "type": "uint256"
        }
      ],
      "name": "getApproved",
      "outputs": [
        {
          "internalType": "address",
          "name": "",
          "type": "address"
        }
      ],
      "stateMutability": "view",
      "type": "function",
      "constant": true
    },
    {
      "inputs": [
        {
          "internalType": "address",
          "name": "owner",
          "type": "address"
        },
        {
          "internalType": "address",
          "name": "operator",
          "type": "address"
        }
      ],
      "name": "isApprovedForAll",
      "outputs": [
        {
          "internalType": "bool",
          "name": "",
          "type": "bool"
        }
      ],
      "stateMutability": "view",
      "type": "function",
      "constant": true
    },
    {
      "inputs": [],
      "name": "name",
      "outputs": [
        {
          "internalType": "string",
          "name": "",
          "type": "string"
        }
      ],
      "stateMutability": "view",
      "type": "function",
      "constant": true
    },
    {
      "inputs": [
        {
          "internalType": "uint256",
          "name": "tokenId",
          "type": "uint256"
        }
      ],
      "name": "ownerOf",
      "outputs": [
        {
          "internalType": "address",
          "name": "",
          "type": "address"
        }
      ],
      "stateMutability": "view",
      "type": "function",
      "constant": true
    },
    {
      "inputs": [
        {
          "internalType": "address",
          "name": "from",
          "type": "address"
        },
        {
          "internalType": "address",
          "name": "to",
          "type": "address"
        },
        {
          "internalType": "uint256",
          "name": "tokenId",
          "type": "uint256"
        }
      ],
      "name": "safeTransferFrom",
      "outputs": [],
      "stateMutability": "nonpayable",
      "type": "function"
    },
    {
      "inputs": [
        {
          "internalType": "address",
          "name": "from",
          "type": "address"
        },
        {
          "internalType": "address",
          "name": "to",
          "type": "address"
        },
        {
          "internalType": "uint256",
          "name": "tokenId",
          "type": "uint256"
        },
        {
          "internalType": "bytes",
          "name": "_data",
          "type": "bytes"
        }
      ],
      "name": "safeTransferFrom",
      "outputs": [],
      "stateMutability": "nonpayable",
      "type": "function"
    },
    {
      "inputs": [
        {
          "internalType": "address",
          "name": "operator",
          "type": "address"
        },
        {
          "internalType": "bool",
          "name": "approved",
          "type": "bool"
        }
      ],
      "name": "setApprovalForAll",
      "outputs": [],
      "stateMutability": "nonpayable",
      "type": "function"
    },
    {
      "inputs": [
        {
          "internalType": "bytes4",
          "name": "interfaceId",
          "type": "bytes4"
        }
      ],
      "name": "supportsInterface",
      "outputs": [
        {
          "internalType": "bool",
          "name": "",
          "type": "bool"
        }
      ],
      "stateMutability": "view",
      "type": "function",
      "constant": true
    },
    {
      "inputs": [],
      "name": "symbol",
      "outputs": [
        {
          "internalType": "string",
          "name": "",
          "type": "string"
        }
      ],
      "stateMutability": "view",
      "type": "function",
      "constant": true
    },
    {
      "inputs": [
        {
          "internalType": "uint256",
          "name": "tokenId",
          "type": "uint256"
        }
      ],
      "name": "tokenURI",
      "outputs": [
        {
          "internalType": "string",
          "name": "",
          "type": "string"
        }
      ],
      "stateMutability": "view",
      "type": "function",
      "constant": true
    },
    {
      "inputs": [
        {
          "internalType": "address",
          "name": "from",
          "type": "address"
        },
        {
          "internalType": "address",
          "name": "to",
          "type": "address"
        },
        {
          "internalType": "uint256",
          "name": "tokenId",
          "type": "uint256"
        }
      ],
      "name": "transferFrom",
      "outputs": [],
      "stateMutability": "nonpayable",
      "type": "function"
    },
    {
      "inputs": [
        {
          "internalType": "string",
          "name": "_color",
          "type": "string"
        }
      ],
      "name": "mint",
      "outputs": [],
      "stateMutability": "nonpayable",
      "type": "function"
    },
    {
      "inputs": [],
      "name": "getColorCount",
      "outputs": [
        {
          "internalType": "uint256",
          "name": "",
          "type": "uint256"
        }
      ],
      "stateMutability": "view",
      "type": "function",
      "constant": true
    }
  ],
  "bytecode": "0x60806040523480156200001157600080fd5b506040518060400160405280600581526020017f436f6c6f720000000000000000000000000000000000000000000000000000008152506040518060400160405280600581526020017f434f4c4f52000000000000000000000000000000000000000000000000000000815250816000908051906020019062000096929190620000b8565b508060019080519060200190620000af929190620000b8565b505050620001cd565b828054620000c69062000168565b90600052602060002090601f016020900481019282620000ea576000855562000136565b82601f106200010557805160ff191683800117855562000136565b8280016001018555821562000136579182015b828111156200013557825182559160200191906001019062000118565b5b50905062000145919062000149565b5090565b5b80821115620001645760008160009055506001016200014a565b5090565b600060028204905060018216806200018157607f821691505b602082108114156200019857620001976200019e565b5b50919050565b7f4e487b7100000000000000000000000000000000000000000000000000000000600052602260045260246000fd5b612a2a80620001dd6000396000f3fe608060405234801561001057600080fd5b50600436106100ff5760003560e01c806370a0823111610097578063bd11f69d11610066578063bd11f69d146102aa578063c87b56dd146102da578063d85d3d271461030a578063e985e9c514610326576100ff565b806370a082311461022457806395d89b4114610254578063a22cb46514610272578063b88d4fde1461028e576100ff565b8063095ea7b3116100d3578063095ea7b3146101a057806323b872dd146101bc57806342842e0e146101d85780636352211e146101f4576100ff565b806239b3491461010457806301ffc9a71461012257806306fdde0314610152578063081812fc14610170575b600080fd5b61010c610356565b6040516101199190612175565b60405180910390f35b61013c60048036038101906101379190611b4c565b610363565b6040516101499190611f78565b60405180910390f35b61015a610445565b6040516101679190611f93565b60405180910390f35b61018a60048036038101906101859190611bef565b6104d7565b6040516101979190611f11565b60405180910390f35b6101ba60048036038101906101b59190611b0c565b61055c565b005b6101d660048036038101906101d191906119f6565b610674565b005b6101f260048036038101906101ed91906119f6565b6106d4565b005b61020e60048036038101906102099190611bef565b6106f4565b60405161021b9190611f11565b60405180910390f35b61023e60048036038101906102399190611989565b6107a6565b60405161024b9190612175565b60405180910390f35b61025c61085e565b6040516102699190611f93565b60405180910390f35b61028c60048036038101906102879190611acc565b6108f0565b005b6102a860048036038101906102a39190611a49565b610a71565b005b6102c460048036038101906102bf9190611bef565b610ad3565b6040516102d19190611f93565b60405180910390f35b6102f460048036038101906102ef9190611bef565b610b7f565b6040516103019190611f93565b60405180910390f35b610324600480360381019061031f9190611ba6565b610c26565b005b610340600480360381019061033b91906119b6565b610ce7565b60405161034d9190611f78565b60405180910390f35b6000600680549050905090565b60007f80ac58cd000000000000000000000000000000000000000000000000000000007bffffffffffffffffffffffffffffffffffffffffffffffffffffffff1916827bffffffffffffffffffffffffffffffffffffffffffffffffffffffff1916148061042e57507f5b5e139f000000000000000000000000000000000000000000000000000000007bffffffffffffffffffffffffffffffffffffffffffffffffffffffff1916827bffffffffffffffffffffffffffffffffffffffffffffffffffffffff1916145b8061043e575061043d82610d7b565b5b9050919050565b606060008054610454906123cb565b80601f0160208091040260200160405190810160405280929190818152602001828054610480906123cb565b80156104cd5780601f106104a2576101008083540402835291602001916104cd565b820191906000526020600020905b8154815290600101906020018083116104b057829003601f168201915b5050505050905090565b60006104e282610de5565b610521576040517f08c379a0000000000000000000000000000000000000000000000000000000008152600401610518906120d5565b60405180910390fd5b6004600083815260200190815260200160002060009054906101000a900473ffffffffffffffffffffffffffffffffffffffff169050919050565b6000610567826106f4565b90508073ffffffffffffffffffffffffffffffffffffffff168373ffffffffffffffffffffffffffffffffffffffff1614156105d8576040517f08c379a00000000000000000000000000000000000000000000000000000000081526004016105cf90612135565b60405180910390fd5b8073ffffffffffffffffffffffffffffffffffffffff166105f7610e51565b73ffffffffffffffffffffffffffffffffffffffff161480610626575061062581610620610e51565b610ce7565b5b610665576040517f08c379a000000000000000000000000000000000000000000000000000000000815260040161065c90612055565b60405180910390fd5b61066f8383610e59565b505050565b61068561067f610e51565b82610f12565b6106c4576040517f08c379a00000000000000000000000000000000000000000000000000000000081526004016106bb90612155565b60405180910390fd5b6106cf838383610ff0565b505050565b6106ef83838360405180602001604052806000815250610a71565b505050565b6000806002600084815260200190815260200160002060009054906101000a900473ffffffffffffffffffffffffffffffffffffffff169050600073ffffffffffffffffffffffffffffffffffffffff168173ffffffffffffffffffffffffffffffffffffffff16141561079d576040517f08c379a000000000000000000000000000000000000000000000000000000000815260040161079490612095565b60405180910390fd5b80915050919050565b60008073ffffffffffffffffffffffffffffffffffffffff168273ffffffffffffffffffffffffffffffffffffffff161415610817576040517f08c379a000000000000000000000000000000000000000000000000000000000815260040161080e90612075565b60405180910390fd5b600360008373ffffffffffffffffffffffffffffffffffffffff1673ffffffffffffffffffffffffffffffffffffffff168152602001908152602001600020549050919050565b60606001805461086d906123cb565b80601f0160208091040260200160405190810160405280929190818152602001828054610899906123cb565b80156108e65780601f106108bb576101008083540402835291602001916108e6565b820191906000526020600020905b8154815290600101906020018083116108c957829003601f168201915b5050505050905090565b6108f8610e51565b73ffffffffffffffffffffffffffffffffffffffff168273ffffffffffffffffffffffffffffffffffffffff161415610966576040517f08c379a000000000000000000000000000000000000000000000000000000000815260040161095d90612015565b60405180910390fd5b8060056000610973610e51565b73ffffffffffffffffffffffffffffffffffffffff1673ffffffffffffffffffffffffffffffffffffffff16815260200190815260200160002060008473ffffffffffffffffffffffffffffffffffffffff1673ffffffffffffffffffffffffffffffffffffffff16815260200190815260200160002060006101000a81548160ff0219169083151502179055508173ffffffffffffffffffffffffffffffffffffffff16610a20610e51565b73ffffffffffffffffffffffffffffffffffffffff167f17307eab39ab6107e8899845ad3d59bd9653f200f220920489ca2b5937696c3183604051610a659190611f78565b60405180910390a35050565b610a82610a7c610e51565b83610f12565b610ac1576040517f08c379a0000000000000000000000000000000000000000000000000000000008152600401610ab890612155565b60405180910390fd5b610acd8484848461124c565b50505050565b60068181548110610ae357600080fd5b906000526020600020016000915090508054610afe906123cb565b80601f0160208091040260200160405190810160405280929190818152602001828054610b2a906123cb565b8015610b775780601f10610b4c57610100808354040283529160200191610b77565b820191906000526020600020905b815481529060010190602001808311610b5a57829003601f168201915b505050505081565b6060610b8a82610de5565b610bc9576040517f08c379a0000000000000000000000000000000000000000000000000000000008152600401610bc090612115565b60405180910390fd5b6000610bd36112a8565b90506000815111610bf35760405180602001604052806000815250610c1e565b80610bfd846112bf565b604051602001610c0e929190611eed565b6040516020818303038152906040525b915050919050565b600781604051610c369190611ed6565b908152602001604051809103902060009054906101000a900460ff1615610c5c57600080fd5b600681908060018154018082558091505060019003906000526020600020016000909190919091509080519060200190610c9792919061179d565b5060006006805490509050610cac3382611420565b6001600783604051610cbe9190611ed6565b908152602001604051809103902060006101000a81548160ff0219169083151502179055505050565b6000600560008473ffffffffffffffffffffffffffffffffffffffff1673ffffffffffffffffffffffffffffffffffffffff16815260200190815260200160002060008373ffffffffffffffffffffffffffffffffffffffff1673ffffffffffffffffffffffffffffffffffffffff16815260200190815260200160002060009054906101000a900460ff16905092915050565b60007f01ffc9a7000000000000000000000000000000000000000000000000000000007bffffffffffffffffffffffffffffffffffffffffffffffffffffffff1916827bffffffffffffffffffffffffffffffffffffffffffffffffffffffff1916149050919050565b60008073ffffffffffffffffffffffffffffffffffffffff166002600084815260200190815260200160002060009054906101000a900473ffffffffffffffffffffffffffffffffffffffff1673ffffffffffffffffffffffffffffffffffffffff1614159050919050565b600033905090565b816004600083815260200190815260200160002060006101000a81548173ffffffffffffffffffffffffffffffffffffffff021916908373ffffffffffffffffffffffffffffffffffffffff160217905550808273ffffffffffffffffffffffffffffffffffffffff16610ecc836106f4565b73ffffffffffffffffffffffffffffffffffffffff167f8c5be1e5ebec7d5bd14f71427d1e84f3dd0314c0f7b2291e5b200ac8c7c3b92560405160405180910390a45050565b6000610f1d82610de5565b610f5c576040517f08c379a0000000000000000000000000000000000000000000000000000000008152600401610f5390612035565b60405180910390fd5b6000610f67836106f4565b90508073ffffffffffffffffffffffffffffffffffffffff168473ffffffffffffffffffffffffffffffffffffffff161480610fd657508373ffffffffffffffffffffffffffffffffffffffff16610fbe846104d7565b73ffffffffffffffffffffffffffffffffffffffff16145b80610fe75750610fe68185610ce7565b5b91505092915050565b8273ffffffffffffffffffffffffffffffffffffffff16611010826106f4565b73ffffffffffffffffffffffffffffffffffffffff1614611066576040517f08c379a000000000000000000000000000000000000000000000000000000000815260040161105d906120f5565b60405180910390fd5b600073ffffffffffffffffffffffffffffffffffffffff168273ffffffffffffffffffffffffffffffffffffffff1614156110d6576040517f08c379a00000000000000000000000000000000000000000000000000000000081526004016110cd90611ff5565b60405180910390fd5b6110e18383836115ee565b6110ec600082610e59565b6001600360008573ffffffffffffffffffffffffffffffffffffffff1673ffffffffffffffffffffffffffffffffffffffff168152602001908152602001600020600082825461113c91906122e1565b925050819055506001600360008473ffffffffffffffffffffffffffffffffffffffff1673ffffffffffffffffffffffffffffffffffffffff1681526020019081526020016000206000828254611193919061225a565b92505081905550816002600083815260200190815260200160002060006101000a81548173ffffffffffffffffffffffffffffffffffffffff021916908373ffffffffffffffffffffffffffffffffffffffff160217905550808273ffffffffffffffffffffffffffffffffffffffff168473ffffffffffffffffffffffffffffffffffffffff167fddf252ad1be2c89b69c2b068fc378daa952ba7f163c4a11628f55a4df523b3ef60405160405180910390a4505050565b611257848484610ff0565b611263848484846115f3565b6112a2576040517f08c379a000000000000000000000000000000000000000000000000000000000815260040161129990611fb5565b60405180910390fd5b50505050565b606060405180602001604052806000815250905090565b60606000821415611307576040518060400160405280600181526020017f3000000000000000000000000000000000000000000000000000000000000000815250905061141b565b600082905060005b600082146113395780806113229061242e565b915050600a8261133291906122b0565b915061130f565b60008167ffffffffffffffff81111561135557611354612564565b5b6040519080825280601f01601f1916602001820160405280156113875781602001600182028036833780820191505090505b5090505b60008514611414576001826113a091906122e1565b9150600a856113af9190612477565b60306113bb919061225a565b60f81b8183815181106113d1576113d0612535565b5b60200101907effffffffffffffffffffffffffffffffffffffffffffffffffffffffffffff1916908160001a905350600a8561140d91906122b0565b945061138b565b8093505050505b919050565b600073ffffffffffffffffffffffffffffffffffffffff168273ffffffffffffffffffffffffffffffffffffffff161415611490576040517f08c379a0000000000000000000000000000000000000000000000000000000008152600401611487906120b5565b60405180910390fd5b61149981610de5565b156114d9576040517f08c379a00000000000000000000000000000000000000000000000000000000081526004016114d090611fd5565b60405180910390fd5b6114e5600083836115ee565b6001600360008473ffffffffffffffffffffffffffffffffffffffff1673ffffffffffffffffffffffffffffffffffffffff1681526020019081526020016000206000828254611535919061225a565b92505081905550816002600083815260200190815260200160002060006101000a81548173ffffffffffffffffffffffffffffffffffffffff021916908373ffffffffffffffffffffffffffffffffffffffff160217905550808273ffffffffffffffffffffffffffffffffffffffff16600073ffffffffffffffffffffffffffffffffffffffff167fddf252ad1be2c89b69c2b068fc378daa952ba7f163c4a11628f55a4df523b3ef60405160405180910390a45050565b505050565b60006116148473ffffffffffffffffffffffffffffffffffffffff1661178a565b1561177d578373ffffffffffffffffffffffffffffffffffffffff1663150b7a0261163d610e51565b8786866040518563ffffffff1660e01b815260040161165f9493929190611f2c565b602060405180830381600087803b15801561167957600080fd5b505af19250505080156116aa57506040513d601f19601f820116820180604052508101906116a79190611b79565b60015b61172d573d80600081146116da576040519150601f19603f3d011682016040523d82523d6000602084013e6116df565b606091505b50600081511415611725576040517f08c379a000000000000000000000000000000000000000000000000000000000815260040161171c90611fb5565b60405180910390fd5b805181602001fd5b63150b7a0260e01b7bffffffffffffffffffffffffffffffffffffffffffffffffffffffff1916817bffffffffffffffffffffffffffffffffffffffffffffffffffffffff191614915050611782565b600190505b949350505050565b600080823b905060008111915050919050565b8280546117a9906123cb565b90600052602060002090601f0160209004810192826117cb5760008555611812565b82601f106117e457805160ff1916838001178555611812565b82800160010185558215611812579182015b828111156118115782518255916020019190600101906117f6565b5b50905061181f9190611823565b5090565b5b8082111561183c576000816000905550600101611824565b5090565b600061185361184e846121b5565b612190565b90508281526020810184848401111561186f5761186e612598565b5b61187a848285612389565b509392505050565b6000611895611890846121e6565b612190565b9050828152602081018484840111156118b1576118b0612598565b5b6118bc848285612389565b509392505050565b6000813590506118d381612998565b92915050565b6000813590506118e8816129af565b92915050565b6000813590506118fd816129c6565b92915050565b600081519050611912816129c6565b92915050565b600082601f83011261192d5761192c612593565b5b813561193d848260208601611840565b91505092915050565b600082601f83011261195b5761195a612593565b5b813561196b848260208601611882565b91505092915050565b600081359050611983816129dd565b92915050565b60006020828403121561199f5761199e6125a2565b5b60006119ad848285016118c4565b91505092915050565b600080604083850312156119cd576119cc6125a2565b5b60006119db858286016118c4565b92505060206119ec858286016118c4565b9150509250929050565b600080600060608486031215611a0f57611a0e6125a2565b5b6000611a1d868287016118c4565b9350506020611a2e868287016118c4565b9250506040611a3f86828701611974565b9150509250925092565b60008060008060808587031215611a6357611a626125a2565b5b6000611a71878288016118c4565b9450506020611a82878288016118c4565b9350506040611a9387828801611974565b925050606085013567ffffffffffffffff811115611ab457611ab361259d565b5b611ac087828801611918565b91505092959194509250565b60008060408385031215611ae357611ae26125a2565b5b6000611af1858286016118c4565b9250506020611b02858286016118d9565b9150509250929050565b60008060408385031215611b2357611b226125a2565b5b6000611b31858286016118c4565b9250506020611b4285828601611974565b9150509250929050565b600060208284031215611b6257611b616125a2565b5b6000611b70848285016118ee565b91505092915050565b600060208284031215611b8f57611b8e6125a2565b5b6000611b9d84828501611903565b91505092915050565b600060208284031215611bbc57611bbb6125a2565b5b600082013567ffffffffffffffff811115611bda57611bd961259d565b5b611be684828501611946565b91505092915050565b600060208284031215611c0557611c046125a2565b5b6000611c1384828501611974565b91505092915050565b611c2581612315565b82525050565b611c3481612327565b82525050565b6000611c4582612217565b611c4f818561222d565b9350611c5f818560208601612398565b611c68816125a7565b840191505092915050565b6000611c7e82612222565b611c88818561223e565b9350611c98818560208601612398565b611ca1816125a7565b840191505092915050565b6000611cb782612222565b611cc1818561224f565b9350611cd1818560208601612398565b80840191505092915050565b6000611cea60328361223e565b9150611cf5826125b8565b604082019050919050565b6000611d0d601c8361223e565b9150611d1882612607565b602082019050919050565b6000611d3060248361223e565b9150611d3b82612630565b604082019050919050565b6000611d5360198361223e565b9150611d5e8261267f565b602082019050919050565b6000611d76602c8361223e565b9150611d81826126a8565b604082019050919050565b6000611d9960388361223e565b9150611da4826126f7565b604082019050919050565b6000611dbc602a8361223e565b9150611dc782612746565b604082019050919050565b6000611ddf60298361223e565b9150611dea82612795565b604082019050919050565b6000611e0260208361223e565b9150611e0d826127e4565b602082019050919050565b6000611e25602c8361223e565b9150611e308261280d565b604082019050919050565b6000611e4860298361223e565b9150611e538261285c565b604082019050919050565b6000611e6b602f8361223e565b9150611e76826128ab565b604082019050919050565b6000611e8e60218361223e565b9150611e99826128fa565b604082019050919050565b6000611eb160318361223e565b9150611ebc82612949565b604082019050919050565b611ed08161237f565b82525050565b6000611ee28284611cac565b915081905092915050565b6000611ef98285611cac565b9150611f058284611cac565b91508190509392505050565b6000602082019050611f266000830184611c1c565b92915050565b6000608082019050611f416000830187611c1c565b611f4e6020830186611c1c565b611f5b6040830185611ec7565b8181036060830152611f6d8184611c3a565b905095945050505050565b6000602082019050611f8d6000830184611c2b565b92915050565b60006020820190508181036000830152611fad8184611c73565b905092915050565b60006020820190508181036000830152611fce81611cdd565b9050919050565b60006020820190508181036000830152611fee81611d00565b9050919050565b6000602082019050818103600083015261200e81611d23565b9050919050565b6000602082019050818103600083015261202e81611d46565b9050919050565b6000602082019050818103600083015261204e81611d69565b9050919050565b6000602082019050818103600083015261206e81611d8c565b9050919050565b6000602082019050818103600083015261208e81611daf565b9050919050565b600060208201905081810360008301526120ae81611dd2565b9050919050565b600060208201905081810360008301526120ce81611df5565b9050919050565b600060208201905081810360008301526120ee81611e18565b9050919050565b6000602082019050818103600083015261210e81611e3b565b9050919050565b6000602082019050818103600083015261212e81611e5e565b9050919050565b6000602082019050818103600083015261214e81611e81565b9050919050565b6000602082019050818103600083015261216e81611ea4565b9050919050565b600060208201905061218a6000830184611ec7565b92915050565b600061219a6121ab565b90506121a682826123fd565b919050565b6000604051905090565b600067ffffffffffffffff8211156121d0576121cf612564565b5b6121d9826125a7565b9050602081019050919050565b600067ffffffffffffffff82111561220157612200612564565b5b61220a826125a7565b9050602081019050919050565b600081519050919050565b600081519050919050565b600082825260208201905092915050565b600082825260208201905092915050565b600081905092915050565b60006122658261237f565b91506122708361237f565b9250827fffffffffffffffffffffffffffffffffffffffffffffffffffffffffffffffff038211156122a5576122a46124a8565b5b828201905092915050565b60006122bb8261237f565b91506122c68361237f565b9250826122d6576122d56124d7565b5b828204905092915050565b60006122ec8261237f565b91506122f78361237f565b92508282101561230a576123096124a8565b5b828203905092915050565b60006123208261235f565b9050919050565b60008115159050919050565b60007fffffffff0000000000000000000000000000000000000000000000000000000082169050919050565b600073ffffffffffffffffffffffffffffffffffffffff82169050919050565b6000819050919050565b82818337600083830152505050565b60005b838110156123b657808201518184015260208101905061239b565b838111156123c5576000848401525b50505050565b600060028204905060018216806123e357607f821691505b602082108114156123f7576123f6612506565b5b50919050565b612406826125a7565b810181811067ffffffffffffffff8211171561242557612424612564565b5b80604052505050565b60006124398261237f565b91507fffffffffffffffffffffffffffffffffffffffffffffffffffffffffffffffff82141561246c5761246b6124a8565b5b600182019050919050565b60006124828261237f565b915061248d8361237f565b92508261249d5761249c6124d7565b5b828206905092915050565b7f4e487b7100000000000000000000000000000000000000000000000000000000600052601160045260246000fd5b7f4e487b7100000000000000000000000000000000000000000000000000000000600052601260045260246000fd5b7f4e487b7100000000000000000000000000000000000000000000000000000000600052602260045260246000fd5b7f4e487b7100000000000000000000000000000000000000000000000000000000600052603260045260246000fd5b7f4e487b7100000000000000000000000000000000000000000000000000000000600052604160045260246000fd5b600080fd5b600080fd5b600080fd5b600080fd5b6000601f19601f8301169050919050565b7f4552433732313a207472616e7366657220746f206e6f6e20455243373231526560008201527f63656976657220696d706c656d656e7465720000000000000000000000000000602082015250565b7f4552433732313a20746f6b656e20616c7265616479206d696e74656400000000600082015250565b7f4552433732313a207472616e7366657220746f20746865207a65726f2061646460008201527f7265737300000000000000000000000000000000000000000000000000000000602082015250565b7f4552433732313a20617070726f766520746f2063616c6c657200000000000000600082015250565b7f4552433732313a206f70657261746f7220717565727920666f72206e6f6e657860008201527f697374656e7420746f6b656e0000000000000000000000000000000000000000602082015250565b7f4552433732313a20617070726f76652063616c6c6572206973206e6f74206f7760008201527f6e6572206e6f7220617070726f76656420666f7220616c6c0000000000000000602082015250565b7f4552433732313a2062616c616e636520717565727920666f7220746865207a6560008201527f726f206164647265737300000000000000000000000000000000000000000000602082015250565b7f4552433732313a206f776e657220717565727920666f72206e6f6e657869737460008201527f656e7420746f6b656e0000000000000000000000000000000000000000000000602082015250565b7f4552433732313a206d696e7420746f20746865207a65726f2061646472657373600082015250565b7f4552433732313a20617070726f76656420717565727920666f72206e6f6e657860008201527f697374656e7420746f6b656e0000000000000000000000000000000000000000602082015250565b7f4552433732313a207472616e73666572206f6620746f6b656e2074686174206960008201527f73206e6f74206f776e0000000000000000000000000000000000000000000000602082015250565b7f4552433732314d657461646174613a2055524920717565727920666f72206e6f60008201527f6e6578697374656e7420746f6b656e0000000000000000000000000000000000602082015250565b7f4552433732313a20617070726f76616c20746f2063757272656e74206f776e6560008201527f7200000000000000000000000000000000000000000000000000000000000000602082015250565b7f4552433732313a207472616e736665722063616c6c6572206973206e6f74206f60008201527f776e6572206e6f7220617070726f766564000000000000000000000000000000602082015250565b6129a181612315565b81146129ac57600080fd5b50565b6129b881612327565b81146129c357600080fd5b50565b6129cf81612333565b81146129da57600080fd5b50565b6129e68161237f565b81146129f157600080fd5b5056fea26469706673582212204a6d739c86edf3823ba7adfd161131951f6fadeff4b8d946fb51f7829042947464736f6c63430008060033",
  "immutableReferences": {},
  "source": "// SPDX-License-Identifier: MIT\r\npragma solidity >= 0.5.0 < 0.9.0;\r\n\r\nimport \"@openzeppelin/contracts/token/ERC721/ERC721.sol\";\r\n\r\ncontract Color is ERC721 {\r\n\r\n    string[] public colors;\r\n    mapping(string => bool) colorExists;\r\n\r\n\r\n\r\n    constructor () ERC721 (\"Color\",\"COLOR\") {\r\n\r\n    }\r\n\r\n   \r\n\r\n    function mint(string memory _color) public {\r\n        require(!colorExists[_color]);\r\n            colors.push(_color);\r\n            uint id = colors.length;\r\n             _mint(msg.sender, id);\r\n              \r\n             colorExists[_color] = true;\r\n         \r\n    }\r\n\r\n    //Function to get total number of colors found in the Color contract\r\n    function getColorCount() public view returns (uint) {\r\n                return colors.length;\r\n    }\r\n\r\n  \r\n\r\n\r\n}",
  "sourcePath": "C:/Users/JOZA/Desktop/NFTs Projects/nft/src/contracts/Color.sol",
  "compiler": {
    "name": "solc",
    "version": "0.8.6+commit.11564f7e.Emscripten.clang"
  },
  "schemaVersion": "3.3.2",
  "updatedAt": "2021-06-30T20:50:37.029Z",
  "networkType": "ethereum",
  "devdoc": {
    "kind": "dev",
    "methods": {
      "approve(address,uint256)": {
        "details": "See {IERC721-approve}."
      },
      "balanceOf(address)": {
        "details": "See {IERC721-balanceOf}."
      },
      "getApproved(uint256)": {
        "details": "See {IERC721-getApproved}."
      },
      "isApprovedForAll(address,address)": {
        "details": "See {IERC721-isApprovedForAll}."
      },
      "name()": {
        "details": "See {IERC721Metadata-name}."
      },
      "ownerOf(uint256)": {
        "details": "See {IERC721-ownerOf}."
      },
      "safeTransferFrom(address,address,uint256)": {
        "details": "See {IERC721-safeTransferFrom}."
      },
      "safeTransferFrom(address,address,uint256,bytes)": {
        "details": "See {IERC721-safeTransferFrom}."
      },
      "setApprovalForAll(address,bool)": {
        "details": "See {IERC721-setApprovalForAll}."
      },
      "supportsInterface(bytes4)": {
        "details": "See {IERC165-supportsInterface}."
      },
      "symbol()": {
        "details": "See {IERC721Metadata-symbol}."
      },
      "tokenURI(uint256)": {
        "details": "See {IERC721Metadata-tokenURI}."
      },
      "transferFrom(address,address,uint256)": {
        "details": "See {IERC721-transferFrom}."
      }
    },
    "version": 1
  },
  "userdoc": {
    "kind": "user",
    "methods": {},
    "version": 1
  }
}